:020000040800F2
:100000004007002029020008DD040008BF030008A3
:10001000C3030008DB0200085B0A000800000000C0
:100020000000000000000000000000009906000829
:10003000DF020008000000006D050008B10700089D
:10004000430200084302000843020008430200087C
:10005000430200084302000843020008430200086C
:10006000430200084302000843020008430200085C
:10007000430200084302000843020008430200084C
:10008000430200084302000843020008430200083C
:10009000430200084302000843020008430200082C
:1000A000430200084302000843020008430200081C
:1000B000430200084302000843020008430200080C
:1000C00043020008430200084302000843020008FC
:1000D000430200081D08000843020008430200080C
:1000E00043020008430200084302000843020008DC
:1000F00043020008430200084302000843020008CC
:1001000043020008430200084302000843020008BB
:1001100043020008430200084302000843020008AB
:10012000430200084302000843020008430200089B
:10013000430200084302000843020008430200088B
:10014000430200084302000843020008430200087B
:10015000430200084302000843020008430200086B
:10016000430200084302000843020008430200085B
:10017000430200084302000843020008430200084B
:10018000430200084302000800F002F800F03CF8C7
:100190000AA090E8000C82448344AAF10107DA45E2
:1001A00001D100F031F8AFF2090EBAE80F0013F0F8
:1001B000010F18BFFB1A43F001031847A009000004
:1001C000C0090000103A24BF78C878C1FAD8520795
:1001D00024BF30C830C144BF04680C6070470000C1
:1001E0000023002400250026103A28BF78C1FBD840
:1001F000520728BF30C148BF0B6070471FB500F0E1
:10020000A7FC1FBD10B510BD00F031F81146FFF777
:10021000F5FF00F085FC00F04FF803B4FFF7F2FFA4
:1002200003BC00F053F80000094880470948004724
:10023000FEE7FEE7FEE7FEE7FEE7FEE7FEE7FEE796
:10024000FEE7FEE704480549054A064B70470000F3
:10025000B507000889010008400100204007002080
:1002600040030020400300207047704770477546E8
:1002700000F028F8AE4605006946534620F0070016
:10028000854618B020B5FFF7DDFFBDE820404FF0F0
:1002900000064FF000074FF000084FF0000B21F070
:1002A0000701AC46ACE8C009ACE8C009ACE8C0093D
:1002B000ACE8C0098D4670470446AFF30080204685
:1002C000FFF7ABFF00487047E0000020014918200D
:1002D000ABBEFEE726000200704700BFFEE7704796
:1002E000F0B50A4600210023002400BF3DE00125AF
:1002F00005FA01F3156805EA03049C4234D1056848
:100300004F000326BE40B543056015794E00B54049
:100310000668354305601579012D02D01579022D47
:1003200016D185684F000326BE40B54385605579D8
:100330004E00B540866835438560456801268E408D
:10034000B5434560456896798E40B6B23543456001
:10035000C5684F000326BE40B543C560D5794E0041
:10036000B540C6683543C560491C1029BFD3F0BDF0
:10037000F0B5002300244D07ED0E02FA05F3CE1070
:1003800000F1200555F826504E07F70E0F26BE4007
:10039000B543CF1000F1200646F82750CE1000F1EB
:1003A000200555F8265045EA0304CE1000F120053B
:1003B00045F82640F0BD418370470183704700BF78
:1003C000FEE700BFFEE700001CB50121202000F081
:1003D000CFF84FF40070009001208DF80400002049
:1003E0008DF8060001208DF8070003208DF8050028
:1003F00069460448FFF774FF4FF400710148FFF7A6
:10040000DCFF1CBD0014024000B587B001211020A4
:1004100000F0BEF80121084600F0AAF807220921E1
:100420002C48FFF7A5FF07220A212A48FFF7A0FF63
:100430004FF40070059002208DF8180000208DF810
:100440001A0001208DF81B0003208DF8190005A962
:100450002048FFF745FF4FF48060059002208DF89B
:10046000180000208DF81A0001208DF81B000320D1
:100470008DF8190005A91748FFF732FF4FF4E13056
:1004800001900C20ADF80E000020ADF80C00ADF886
:100490000A00ADF80800ADF8100001A90E4800F000
:1004A0006DFA01210C4800F00DFA012240F22551AD
:1004B000094800F03DFA25208DF8000001208DF854
:1004C00003008DF801008DF80200684600F008F87E
:1004D00007B000BD0000024000100140704700005E
:1004E00070B5002100230F22C4781CB3174C246878
:1004F00004F4E064C4F5E064C4F30721C1F104042A
:10050000E3B20A4144789C40E1B28478144021432C
:100510000C07210E0E4C05786155047804F01F0578
:100520000124AC4005786D11AD0005F1E025C5F85A
:10053000004109E0047804F01F050124AC40054D9A
:100540000678761145F8264070BD00000CED00E0FD
:1005500000E400E080E100E002490143024A11604A
:10056000704700000000FA050CED00E07047000045
:1005700029B1064A12680243044B1A6004E0034A98
:1005800012688243014B1A60704700003038024005
:1005900029B1064A12680243044B1A6004E0034A78
:1005A00012688243014B1A607047000044380240D1
:1005B000F0B5002100220024022500260223324F3C
:1005C0003F6807F00C0121B1042905D0082937D173
:1005D00005E02E4F076036E02D4F076033E02A4FCD
:1005E0003F1F3F68C7F38056274F3F1F3F6807F004
:1005F0003F036EB1264FB7FBF3F7DFF88CC0ACF1C9
:10060000040CDCF800C0CCF3881C07FB0CF40CE0F5
:100610001E4FB7FBF3F7DFF870C0ACF1040CDCF849
:1006200000C0CCF3881C07FB0CF4174F3F1F3F683A
:10063000C7F301477F1C7D00B4FBF5F7076002E0BC
:10064000124F076000BF00BF0F4F3F6807F0F00177
:100650000909104F7A5C0768D74047600A4F3F6826
:1006600007F4E051890A0B4F7A5C4768D7408760EE
:10067000054F3F6807F46041490B064F7A5C4768B5
:10068000D740C760F0BD0000083802400024F400E5
:1006900000127A0002000020704700000CB5002014
:1006A000019000903448006840F48030324908607E
:1006B00000BF3148006800F4003000900198401CF1
:1006C0000190009818B90198B0F5A04FF1D12A48CF
:1006D000006800F4003010B10120009001E000201B
:1006E00000900098012846D123484030006840F02F
:1006F00080502149403108602048006840F4404063
:100700001E4908601C48083000681B490831086011
:100710000846006840F4004008600846006840F45D
:10072000A05008601648091F0860081F006840F0C4
:100730008070091F086000BF0F48006800F000705B
:100740000028F9D040F205700E4908600A480830C8
:10075000006820F003000849083108600846006876
:1007600040F00200086000BF03480830006800F055
:100770000C000828F8D10CBD003802400070004081
:1007800008544007003C0240042808D14FF0E02103
:10079000096941F004014FF0E022116107E04FF0D8
:1007A000E021096921F004014FF0E0221161704756
:1007B0007047000010B51548006840F470001349F8
:1007C00008601348006840F00100114908600020EB
:1007D0000F49083108600E4800680E4908400C496E
:1007E00008600D48091D0860081F006820F480207B
:1007F000091F0860002006490C310860FFF74EFF12
:100800004FF0006001498039086010BD88ED00E0BC
:1008100000380240FFFFF6FE1030002410B540F211
:100820002551244800F05AF8002841D0214800F012
:100830000FF9C4B24FF400711F48FFF7BCFD3C2014
:1008400000F02CF94FF400711B48FFF7B6FD1B4870
:10085000008800F4004058BB1848008800F480402D
:1008600060B10A2C03D000201449088020E013480E
:10087000008840F400401149088019E00D2C06D191
:100880000E48008840F480400C49088010E00B4876
:100890000088C0F30D000A490C5408480088401C29
:1008A0000649088008460088C72801DD0020088026
:1008B00010BD0000001001400014024000000020A4
:1008C0001800002021B1828942F40052828104E0A4
:1008D00082894DF6FF731A408281704770B50246D7
:1008E000002400230025002040F66A16B14200D102
:1008F00000BFC1F3421501F01F03012606FA03F3FE
:10090000012D02D19689334006E0022D02D1168ACC
:10091000334001E0968A33400C12012606FA04F4B3
:100920001688344013B10CB1012000E0002070BDE6
:10093000F0B50346002400260025002040F66A1783
:10094000B94200D100BF1846C1F3421401F01F069E
:10095000012707FA06F5012C01D10C3004E0022C26
:1009600001D1103000E014301AB107682F4307603E
:1009700002E00768AF430760F0BD00002DE9FF47C4
:1009800005460E460024A14600BFA046B08900B12E
:1009900000BF2C8A24F44054F08804432C82AC8994
:1009A00041F20C608443B08831890843718908435F
:1009B0000443AC81AC8A24F44074B0890443AC8213
:1009C0006846FFF7F5FD2048854202D01F48854262
:1009D00002D1DDF80C9001E0DDF80890A88900F460
:1009E000004040B109EBC90000EB09103168490033
:1009F000B0FBF1F707E009EBC90000EB0910316823
:100A00008900B0FBF1F76420B7FBF0F00401200986
:100A1000642101FB1078A88900F4004040B1322025
:100A200000EBC800B0FBF1F000F00700044308E061
:100A3000322000EB08106421B0FBF1F000F00F0051
:100A400004432C81BDE8FF870010014000140140E1
:100A500001468888C0F30800704700BFFEE7000029
:100A600010B504466FF00400FFF78EFEE11704EBAB
:100A70005171C1F3C701074A11701046007800EBAD
:100A80004001C1EBC0104FF6FF7101EAC0000249FE
:100A9000088010BD120000201400002070B504462C
:100AA0004FF4077094FBF0F0C6B24FF4077094FB5C
:100AB000F0F100FB114085B205E04FF4077000F043
:100AC00009F8701EC6B2002EF7D115B1284600F005
:100AD00001F870BD0146114A12884A434FF0E023E5
:100AE0005A6100229A611A46126942F001021A61A3
:100AF00000BF4FF0E022106900F001021AB100F4CB
:100B00008032002AF5D04FF0E022126922F0010273
:100B10004FF0E0231A6100229A6170471400002010
:100B20004FF4A060FFF718FDFFF76EFCFFF74CFCD9
:100B3000A820FFF795FF07E00448008800F4004074
:100B400010B1002001490880F6E7000000000020F5
:100B50004FF04070E1EE100A704700007C0B000877
:100B60000000002018000000C4010008940B0008D9
:100B70001800002028070000E00100080000000025
:100B80000000010203040102030406070809000033
:040B90000000000061
:040000050800018965
:00000001FF
